{
  "transactions": [
    {
      "hash": "0x5e2df3e77f10a07b5b4e631c8288395147854a1c4aad87e68052cd8471b9fc1d",
      "transactionType": "CALL",
      "contractName": null,
      "contractAddress": "0x648a82073e227fa25dd26e7aa03bc4630e0f219a",
      "function": "store(uint256)",
      "arguments": [
        "77"
      ],
      "transaction": {
        "from": "0xf39fd6e51aad88f6f4ce6ab8827279cfffb92266",
        "to": "0x648a82073e227fa25dd26e7aa03bc4630e0f219a",
        "gas": "0xebe8",
        "value": "0x0",
        "input": "0x6057361d000000000000000000000000000000000000000000000000000000000000004d",
        "nonce": "0x0",
        "chainId": "0x539"
      },
      "additionalContracts": [],
      "isFixedGasLimit": false
    },
    {
      "hash": null,
      "transactionType": "CALL",
      "contractName": null,
      "contractAddress": "0x648a82073e227fa25dd26e7aa03bc4630e0f219a",
      "function": "addPerson(string,uint256)",
      "arguments": [
        "Rizky Cahyono Putra",
        "10"
      ],
      "transaction": {
        "from": "0xf39fd6e51aad88f6f4ce6ab8827279cfffb92266",
        "to": "0x648a82073e227fa25dd26e7aa03bc4630e0f219a",
        "gas": "0x283eb",
        "value": "0x0",
        "input": "0x6f760f410000000000000000000000000000000000000000000000000000000000000040000000000000000000000000000000000000000000000000000000000000000a000000000000000000000000000000000000000000000000000000000000001352697a6b7920436168796f6e6f20507574726100000000000000000000000000",
        "nonce": "0x1",
        "chainId": "0x539"
      },
      "additionalContracts": [],
      "isFixedGasLimit": false
    }
  ],
  "receipts": [],
  "libraries": [],
  "pending": [
    "0x5e2df3e77f10a07b5b4e631c8288395147854a1c4aad87e68052cd8471b9fc1d"
  ],
  "returns": {},
  "timestamp": 1773414292741,
  "chain": 1337,
  "commit": "a471571"
}